{
	"ILArt.sol": {
		"ILArt": {
			"abi": [
				{
					"anonymous": false,
					"inputs": [
						{
							"indexed": false,
							"internalType": "address",
							"name": "caller",
							"type": "address"
						},
						{
							"indexed": false,
							"internalType": "uint256",
							"name": "artworkId",
							"type": "uint256"
						},
						{
							"indexed": false,
							"internalType": "uint256[]",
							"name": "parameterIds",
							"type": "uint256[]"
						},
						{
							"indexed": false,
							"internalType": "uint256[]",
							"name": "parametervalues",
							"type": "uint256[]"
						}
					],
					"name": "ParameterChanged",
					"type": "event"
				},
				{
					"inputs": [
						{
							"internalType": "uint256",
							"name": "artworkId",
							"type": "uint256"
						},
						{
							"internalType": "uint256[]",
							"name": "parameterIds",
							"type": "uint256[]"
						},
						{
							"internalType": "uint256[]",
							"name": "parameterValues",
							"type": "uint256[]"
						}
					],
					"name": "Interact",
					"outputs": [],
					"stateMutability": "nonpayable",
					"type": "function"
				}
			],
			"devdoc": {
				"details": "This is a very simple contract that can record participation in a live stream. It is meant to be deployed on a no/low gas blockchain. Handling of emitted events relies on the implentation of the artist.",
				"events": {
					"ParameterChanged(address,uint256,uint256[],uint256[])": {
						"details": "ParameterChanged is the core event and is emitted when there is participation from the audience. Artist needs to process the participation themselves Multiple parameters can be updated on the same event."
					}
				},
				"kind": "dev",
				"methods": {},
				"version": 1
			},
			"evm": {
				"assembly": "    /* \"ILArt.sol\":339:945  contract ILArt {\r... */\n  mstore(0x40, 0x80)\n  callvalue\n  dup1\n  iszero\n  tag_1\n  jumpi\n  0x00\n  dup1\n  revert\ntag_1:\n  pop\n  dataSize(sub_0)\n  dup1\n  dataOffset(sub_0)\n  0x00\n  codecopy\n  0x00\n  return\nstop\n\nsub_0: assembly {\n        /* \"ILArt.sol\":339:945  contract ILArt {\r... */\n      mstore(0x40, 0x80)\n      callvalue\n      dup1\n      iszero\n      tag_1\n      jumpi\n      0x00\n      dup1\n      revert\n    tag_1:\n      pop\n      jumpi(tag_2, lt(calldatasize, 0x04))\n      shr(0xe0, calldataload(0x00))\n      dup1\n      0x712cc040\n      eq\n      tag_3\n      jumpi\n    tag_2:\n      0x00\n      dup1\n      revert\n        /* \"ILArt.sol\":740:938  function Interact(uint artworkId, uint[] calldata parameterIds, uint[] calldata parameterValues) public {\r... */\n    tag_3:\n      tag_4\n      tag_5\n      calldatasize\n      0x04\n      tag_6\n      jump\t// in\n    tag_5:\n      tag_7\n      jump\t// in\n    tag_4:\n      stop\n    tag_7:\n        /* \"ILArt.sol\":860:930  ParameterChanged(msg.sender, artworkId, parameterIds, parameterValues) */\n      0xa56f929342b61350d67151f008d9eaa0d8e8fe6bb21481d9a7797a8291f25e59\n        /* \"ILArt.sol\":877:887  msg.sender */\n      caller\n        /* \"ILArt.sol\":889:898  artworkId */\n      dup7\n        /* \"ILArt.sol\":900:912  parameterIds */\n      dup7\n      dup7\n        /* \"ILArt.sol\":914:929  parameterValues */\n      dup7\n      dup7\n        /* \"ILArt.sol\":860:930  ParameterChanged(msg.sender, artworkId, parameterIds, parameterValues) */\n      mload(0x40)\n      tag_9\n      swap7\n      swap6\n      swap5\n      swap4\n      swap3\n      swap2\n      swap1\n      tag_10\n      jump\t// in\n    tag_9:\n      mload(0x40)\n      dup1\n      swap2\n      sub\n      swap1\n      log1\n        /* \"ILArt.sol\":740:938  function Interact(uint artworkId, uint[] calldata parameterIds, uint[] calldata parameterValues) public {\r... */\n      pop\n      pop\n      pop\n      pop\n      pop\n      jump\t// out\n        /* \"#utility.yul\":14:381   */\n    tag_12:\n        /* \"#utility.yul\":77:85   */\n      0x00\n        /* \"#utility.yul\":87:93   */\n      dup1\n        /* \"#utility.yul\":141:144   */\n      dup4\n        /* \"#utility.yul\":134:138   */\n      0x1f\n        /* \"#utility.yul\":126:132   */\n      dup5\n        /* \"#utility.yul\":122:139   */\n      add\n        /* \"#utility.yul\":118:145   */\n      slt\n        /* \"#utility.yul\":108:163   */\n      tag_14\n      jumpi\n        /* \"#utility.yul\":159:160   */\n      0x00\n        /* \"#utility.yul\":156:157   */\n      dup1\n        /* \"#utility.yul\":149:161   */\n      revert\n        /* \"#utility.yul\":108:163   */\n    tag_14:\n      pop\n        /* \"#utility.yul\":182:202   */\n      dup2\n      calldataload\n        /* \"#utility.yul\":225:243   */\n      0xffffffffffffffff\n        /* \"#utility.yul\":214:244   */\n      dup2\n      gt\n        /* \"#utility.yul\":211:261   */\n      iszero\n      tag_15\n      jumpi\n        /* \"#utility.yul\":257:258   */\n      0x00\n        /* \"#utility.yul\":254:255   */\n      dup1\n        /* \"#utility.yul\":247:259   */\n      revert\n        /* \"#utility.yul\":211:261   */\n    tag_15:\n        /* \"#utility.yul\":294:298   */\n      0x20\n        /* \"#utility.yul\":286:292   */\n      dup4\n        /* \"#utility.yul\":282:299   */\n      add\n        /* \"#utility.yul\":270:299   */\n      swap2\n      pop\n        /* \"#utility.yul\":354:357   */\n      dup4\n        /* \"#utility.yul\":347:351   */\n      0x20\n        /* \"#utility.yul\":337:343   */\n      dup3\n        /* \"#utility.yul\":334:335   */\n      0x05\n        /* \"#utility.yul\":330:344   */\n      shl\n        /* \"#utility.yul\":322:328   */\n      dup6\n        /* \"#utility.yul\":318:345   */\n      add\n        /* \"#utility.yul\":314:352   */\n      add\n        /* \"#utility.yul\":311:358   */\n      gt\n        /* \"#utility.yul\":308:375   */\n      iszero\n      tag_16\n      jumpi\n        /* \"#utility.yul\":371:372   */\n      0x00\n        /* \"#utility.yul\":368:369   */\n      dup1\n        /* \"#utility.yul\":361:373   */\n      revert\n        /* \"#utility.yul\":308:375   */\n    tag_16:\n        /* \"#utility.yul\":14:381   */\n      swap3\n      pop\n      swap3\n      swap1\n      pop\n      jump\t// out\n        /* \"#utility.yul\":386:1227   */\n    tag_6:\n        /* \"#utility.yul\":517:523   */\n      0x00\n        /* \"#utility.yul\":525:531   */\n      dup1\n        /* \"#utility.yul\":533:539   */\n      0x00\n        /* \"#utility.yul\":541:547   */\n      dup1\n        /* \"#utility.yul\":549:555   */\n      0x00\n        /* \"#utility.yul\":602:604   */\n      0x60\n        /* \"#utility.yul\":590:599   */\n      dup7\n        /* \"#utility.yul\":581:588   */\n      dup9\n        /* \"#utility.yul\":577:600   */\n      sub\n        /* \"#utility.yul\":573:605   */\n      slt\n        /* \"#utility.yul\":570:622   */\n      iszero\n      tag_18\n      jumpi\n        /* \"#utility.yul\":618:619   */\n      0x00\n        /* \"#utility.yul\":615:616   */\n      dup1\n        /* \"#utility.yul\":608:620   */\n      revert\n        /* \"#utility.yul\":570:622   */\n    tag_18:\n        /* \"#utility.yul\":654:663   */\n      dup6\n        /* \"#utility.yul\":641:664   */\n      calldataload\n        /* \"#utility.yul\":631:664   */\n      swap5\n      pop\n        /* \"#utility.yul\":715:717   */\n      0x20\n        /* \"#utility.yul\":704:713   */\n      dup7\n        /* \"#utility.yul\":700:718   */\n      add\n        /* \"#utility.yul\":687:719   */\n      calldataload\n        /* \"#utility.yul\":738:756   */\n      0xffffffffffffffff\n        /* \"#utility.yul\":779:781   */\n      dup1\n        /* \"#utility.yul\":771:777   */\n      dup3\n        /* \"#utility.yul\":768:782   */\n      gt\n        /* \"#utility.yul\":765:799   */\n      iszero\n      tag_19\n      jumpi\n        /* \"#utility.yul\":795:796   */\n      0x00\n        /* \"#utility.yul\":792:793   */\n      dup1\n        /* \"#utility.yul\":785:797   */\n      revert\n        /* \"#utility.yul\":765:799   */\n    tag_19:\n        /* \"#utility.yul\":834:904   */\n      tag_20\n        /* \"#utility.yul\":896:903   */\n      dup10\n        /* \"#utility.yul\":887:893   */\n      dup4\n        /* \"#utility.yul\":876:885   */\n      dup11\n        /* \"#utility.yul\":872:894   */\n      add\n        /* \"#utility.yul\":834:904   */\n      tag_12\n      jump\t// in\n    tag_20:\n        /* \"#utility.yul\":923:931   */\n      swap1\n      swap7\n      pop\n        /* \"#utility.yul\":808:904   */\n      swap5\n      pop\n        /* \"#utility.yul\":1011:1013   */\n      0x40\n        /* \"#utility.yul\":996:1014   */\n      dup9\n      add\n        /* \"#utility.yul\":983:1015   */\n      calldataload\n      swap2\n      pop\n        /* \"#utility.yul\":1027:1043   */\n      dup1\n      dup3\n      gt\n        /* \"#utility.yul\":1024:1060   */\n      iszero\n      tag_21\n      jumpi\n        /* \"#utility.yul\":1056:1057   */\n      0x00\n        /* \"#utility.yul\":1053:1054   */\n      dup1\n        /* \"#utility.yul\":1046:1058   */\n      revert\n        /* \"#utility.yul\":1024:1060   */\n    tag_21:\n      pop\n        /* \"#utility.yul\":1095:1167   */\n      tag_22\n        /* \"#utility.yul\":1159:1166   */\n      dup9\n        /* \"#utility.yul\":1148:1156   */\n      dup3\n        /* \"#utility.yul\":1137:1146   */\n      dup10\n        /* \"#utility.yul\":1133:1157   */\n      add\n        /* \"#utility.yul\":1095:1167   */\n      tag_12\n      jump\t// in\n    tag_22:\n        /* \"#utility.yul\":386:1227   */\n      swap7\n      swap10\n      swap6\n      swap9\n      pop\n      swap4\n      swap7\n      pop\n        /* \"#utility.yul\":1186:1194   */\n      swap3\n      swap5\n        /* \"#utility.yul\":1069:1167   */\n      swap4\n        /* \"#utility.yul\":386:1227   */\n      swap3\n      pop\n      pop\n      pop\n      jump\t// out\n        /* \"#utility.yul\":1232:1586   */\n    tag_23:\n        /* \"#utility.yul\":1320:1339   */\n      dup2\n      dup4\n      mstore\n        /* \"#utility.yul\":1302:1305   */\n      0x00\n      sub(shl(0xfb, 0x01), 0x01)\n        /* \"#utility.yul\":1351:1382   */\n      dup4\n      gt\n        /* \"#utility.yul\":1348:1399   */\n      iszero\n      tag_25\n      jumpi\n        /* \"#utility.yul\":1395:1396   */\n      0x00\n        /* \"#utility.yul\":1392:1393   */\n      dup1\n        /* \"#utility.yul\":1385:1397   */\n      revert\n        /* \"#utility.yul\":1348:1399   */\n    tag_25:\n        /* \"#utility.yul\":1431:1437   */\n      dup3\n        /* \"#utility.yul\":1428:1429   */\n      0x05\n        /* \"#utility.yul\":1424:1438   */\n      shl\n        /* \"#utility.yul\":1483:1491   */\n      dup1\n        /* \"#utility.yul\":1476:1481   */\n      dup4\n        /* \"#utility.yul\":1469:1473   */\n      0x20\n        /* \"#utility.yul\":1464:1467   */\n      dup8\n        /* \"#utility.yul\":1460:1474   */\n      add\n        /* \"#utility.yul\":1447:1492   */\n      calldatacopy\n        /* \"#utility.yul\":1560:1561   */\n      0x00\n        /* \"#utility.yul\":1515:1533   */\n      swap5\n      add\n        /* \"#utility.yul\":1535:1539   */\n      0x20\n        /* \"#utility.yul\":1511:1540   */\n      add\n        /* \"#utility.yul\":1549:1562   */\n      swap4\n      dup5\n      mstore\n      pop\n        /* \"#utility.yul\":1511:1540   */\n      swap2\n      swap3\n        /* \"#utility.yul\":1232:1586   */\n      swap2\n      pop\n      pop\n      jump\t// out\n        /* \"#utility.yul\":1591:2280   */\n    tag_10:\n        /* \"#utility.yul\":1953:1954   */\n      0x01\n        /* \"#utility.yul\":1949:1950   */\n      dup1\n        /* \"#utility.yul\":1944:1947   */\n      0xa0\n        /* \"#utility.yul\":1940:1951   */\n      shl\n        /* \"#utility.yul\":1936:1955   */\n      sub\n        /* \"#utility.yul\":1928:1934   */\n      dup8\n        /* \"#utility.yul\":1924:1956   */\n      and\n        /* \"#utility.yul\":1913:1922   */\n      dup2\n        /* \"#utility.yul\":1906:1957   */\n      mstore\n        /* \"#utility.yul\":1993:1999   */\n      dup6\n        /* \"#utility.yul\":1988:1990   */\n      0x20\n        /* \"#utility.yul\":1977:1986   */\n      dup3\n        /* \"#utility.yul\":1973:1991   */\n      add\n        /* \"#utility.yul\":1966:2000   */\n      mstore\n        /* \"#utility.yul\":2036:2039   */\n      0x80\n        /* \"#utility.yul\":2031:2033   */\n      0x40\n        /* \"#utility.yul\":2020:2029   */\n      dup3\n        /* \"#utility.yul\":2016:2034   */\n      add\n        /* \"#utility.yul\":2009:2040   */\n      mstore\n        /* \"#utility.yul\":1887:1891   */\n      0x00\n        /* \"#utility.yul\":2063:2137   */\n      tag_27\n        /* \"#utility.yul\":2132:2135   */\n      0x80\n        /* \"#utility.yul\":2121:2130   */\n      dup4\n        /* \"#utility.yul\":2117:2136   */\n      add\n        /* \"#utility.yul\":2109:2115   */\n      dup7\n        /* \"#utility.yul\":2101:2107   */\n      dup9\n        /* \"#utility.yul\":2063:2137   */\n      tag_23\n      jump\t// in\n    tag_27:\n        /* \"#utility.yul\":2185:2194   */\n      dup3\n        /* \"#utility.yul\":2177:2183   */\n      dup2\n        /* \"#utility.yul\":2173:2195   */\n      sub\n        /* \"#utility.yul\":2168:2170   */\n      0x60\n        /* \"#utility.yul\":2157:2166   */\n      dup5\n        /* \"#utility.yul\":2153:2171   */\n      add\n        /* \"#utility.yul\":2146:2196   */\n      mstore\n        /* \"#utility.yul\":2213:2274   */\n      tag_28\n        /* \"#utility.yul\":2267:2273   */\n      dup2\n        /* \"#utility.yul\":2259:2265   */\n      dup6\n        /* \"#utility.yul\":2251:2257   */\n      dup8\n        /* \"#utility.yul\":2213:2274   */\n      tag_23\n      jump\t// in\n    tag_28:\n        /* \"#utility.yul\":2205:2274   */\n      swap10\n        /* \"#utility.yul\":1591:2280   */\n      swap9\n      pop\n      pop\n      pop\n      pop\n      pop\n      pop\n      pop\n      pop\n      pop\n      jump\t// out\n\n    auxdata: 0xa26469706673582212209533d60e54d0a8371e36cdf5c62ca6a8889605656550d6ae15cf43a14262cca464736f6c63430008070033\n}\n",
				"bytecode": {
					"linkReferences": {},
					"object": "608060405234801561001057600080fd5b50610207806100206000396000f3fe608060405234801561001057600080fd5b506004361061002b5760003560e01c8063712cc04014610030575b600080fd5b61004361003e3660046100d9565b610045565b005b7fa56f929342b61350d67151f008d9eaa0d8e8fe6bb21481d9a7797a8291f25e5933868686868660405161007e96959493929190610189565b60405180910390a15050505050565b60008083601f84011261009f57600080fd5b50813567ffffffffffffffff8111156100b757600080fd5b6020830191508360208260051b85010111156100d257600080fd5b9250929050565b6000806000806000606086880312156100f157600080fd5b85359450602086013567ffffffffffffffff8082111561011057600080fd5b61011c89838a0161008d565b9096509450604088013591508082111561013557600080fd5b506101428882890161008d565b969995985093965092949392505050565b81835260006001600160fb1b0383111561016c57600080fd5b8260051b8083602087013760009401602001938452509192915050565b60018060a01b03871681528560208201526080604082015260006101b1608083018688610153565b82810360608401526101c4818587610153565b999850505050505050505056fea26469706673582212209533d60e54d0a8371e36cdf5c62ca6a8889605656550d6ae15cf43a14262cca464736f6c63430008070033",
					"opcodes": "PUSH1 0x80 PUSH1 0x40 MSTORE CALLVALUE DUP1 ISZERO PUSH2 0x10 JUMPI PUSH1 0x0 DUP1 REVERT JUMPDEST POP PUSH2 0x207 DUP1 PUSH2 0x20 PUSH1 0x0 CODECOPY PUSH1 0x0 RETURN INVALID PUSH1 0x80 PUSH1 0x40 MSTORE CALLVALUE DUP1 ISZERO PUSH2 0x10 JUMPI PUSH1 0x0 DUP1 REVERT JUMPDEST POP PUSH1 0x4 CALLDATASIZE LT PUSH2 0x2B JUMPI PUSH1 0x0 CALLDATALOAD PUSH1 0xE0 SHR DUP1 PUSH4 0x712CC040 EQ PUSH2 0x30 JUMPI JUMPDEST PUSH1 0x0 DUP1 REVERT JUMPDEST PUSH2 0x43 PUSH2 0x3E CALLDATASIZE PUSH1 0x4 PUSH2 0xD9 JUMP JUMPDEST PUSH2 0x45 JUMP JUMPDEST STOP JUMPDEST PUSH32 0xA56F929342B61350D67151F008D9EAA0D8E8FE6BB21481D9A7797A8291F25E59 CALLER DUP7 DUP7 DUP7 DUP7 DUP7 PUSH1 0x40 MLOAD PUSH2 0x7E SWAP7 SWAP6 SWAP5 SWAP4 SWAP3 SWAP2 SWAP1 PUSH2 0x189 JUMP JUMPDEST PUSH1 0x40 MLOAD DUP1 SWAP2 SUB SWAP1 LOG1 POP POP POP POP POP JUMP JUMPDEST PUSH1 0x0 DUP1 DUP4 PUSH1 0x1F DUP5 ADD SLT PUSH2 0x9F JUMPI PUSH1 0x0 DUP1 REVERT JUMPDEST POP DUP2 CALLDATALOAD PUSH8 0xFFFFFFFFFFFFFFFF DUP2 GT ISZERO PUSH2 0xB7 JUMPI PUSH1 0x0 DUP1 REVERT JUMPDEST PUSH1 0x20 DUP4 ADD SWAP2 POP DUP4 PUSH1 0x20 DUP3 PUSH1 0x5 SHL DUP6 ADD ADD GT ISZERO PUSH2 0xD2 JUMPI PUSH1 0x0 DUP1 REVERT JUMPDEST SWAP3 POP SWAP3 SWAP1 POP JUMP JUMPDEST PUSH1 0x0 DUP1 PUSH1 0x0 DUP1 PUSH1 0x0 PUSH1 0x60 DUP7 DUP9 SUB SLT ISZERO PUSH2 0xF1 JUMPI PUSH1 0x0 DUP1 REVERT JUMPDEST DUP6 CALLDATALOAD SWAP5 POP PUSH1 0x20 DUP7 ADD CALLDATALOAD PUSH8 0xFFFFFFFFFFFFFFFF DUP1 DUP3 GT ISZERO PUSH2 0x110 JUMPI PUSH1 0x0 DUP1 REVERT JUMPDEST PUSH2 0x11C DUP10 DUP4 DUP11 ADD PUSH2 0x8D JUMP JUMPDEST SWAP1 SWAP7 POP SWAP5 POP PUSH1 0x40 DUP9 ADD CALLDATALOAD SWAP2 POP DUP1 DUP3 GT ISZERO PUSH2 0x135 JUMPI PUSH1 0x0 DUP1 REVERT JUMPDEST POP PUSH2 0x142 DUP9 DUP3 DUP10 ADD PUSH2 0x8D JUMP JUMPDEST SWAP7 SWAP10 SWAP6 SWAP9 POP SWAP4 SWAP7 POP SWAP3 SWAP5 SWAP4 SWAP3 POP POP POP JUMP JUMPDEST DUP2 DUP4 MSTORE PUSH1 0x0 PUSH1 0x1 PUSH1 0x1 PUSH1 0xFB SHL SUB DUP4 GT ISZERO PUSH2 0x16C JUMPI PUSH1 0x0 DUP1 REVERT JUMPDEST DUP3 PUSH1 0x5 SHL DUP1 DUP4 PUSH1 0x20 DUP8 ADD CALLDATACOPY PUSH1 0x0 SWAP5 ADD PUSH1 0x20 ADD SWAP4 DUP5 MSTORE POP SWAP2 SWAP3 SWAP2 POP POP JUMP JUMPDEST PUSH1 0x1 DUP1 PUSH1 0xA0 SHL SUB DUP8 AND DUP2 MSTORE DUP6 PUSH1 0x20 DUP3 ADD MSTORE PUSH1 0x80 PUSH1 0x40 DUP3 ADD MSTORE PUSH1 0x0 PUSH2 0x1B1 PUSH1 0x80 DUP4 ADD DUP7 DUP9 PUSH2 0x153 JUMP JUMPDEST DUP3 DUP2 SUB PUSH1 0x60 DUP5 ADD MSTORE PUSH2 0x1C4 DUP2 DUP6 DUP8 PUSH2 0x153 JUMP JUMPDEST SWAP10 SWAP9 POP POP POP POP POP POP POP POP POP JUMP INVALID LOG2 PUSH5 0x6970667358 0x22 SLT KECCAK256 SWAP6 CALLER 0xD6 0xE SLOAD 0xD0 0xA8 CALLDATACOPY 0x1E CALLDATASIZE 0xCD CREATE2 0xC6 0x2C 0xA6 0xA8 DUP9 SWAP7 SDIV PUSH6 0x6550D6AE15CF NUMBER LOG1 TIMESTAMP PUSH3 0xCCA464 PUSH20 0x6F6C634300080700330000000000000000000000 "
				},
				"gasEstimates": {
					"creation": {
						"codeDepositCost": "103800",
						"executionCost": "153",
						"totalCost": "103953"
					},
					"external": {
						"Interact(uint256,uint256[],uint256[])": "infinite"
					}
				},
				"methodIdentifiers": {
					"Interact(uint256,uint256[],uint256[])": "712cc040"
				}
			},
			"storageLayout": {
				"storage": [],
				"types": null
			},
			"userdoc": {
				"kind": "user",
				"methods": {},
				"version": 1
			}
		}
	}
}