{
	"data": {
		"bytecode": {
			"linkReferences": {},
			"object": "608060405234801561001057600080fd5b5061022b806100206000396000f3fe608060405234801561001057600080fd5b506004361061002b5760003560e01c8063e24f234414610030575b600080fd5b61004361003e3660046100d9565b610045565b005b7f79b73eddf482e71793ffdc0a9626c079cb209a954da210c8d7797bd856398e4533868686868660405161007e96959493929190610153565b60405180910390a15050505050565b60008083601f84011261009f57600080fd5b50813567ffffffffffffffff8111156100b757600080fd5b6020830191508360208260051b85010111156100d257600080fd5b9250929050565b6000806000806000606086880312156100f157600080fd5b85359450602086013567ffffffffffffffff8082111561011057600080fd5b61011c89838a0161008d565b9096509450604088013591508082111561013557600080fd5b506101428882890161008d565b969995985093965092949392505050565b6001600160a01b0387168152602080820187905260806040830181905282018590526000906001600160fb1b0386111561018c57600080fd5b8560051b808860a0860137830183810360a0908101606086015281018590528590600090819060c0015b878310156101e557833561ffff81168082146101d0578384fd5b825250928401926001929092019184016101b6565b9c9b50505050505050505050505056fea2646970667358221220d443bd833642254865b9ceaf9dc97632fb816f947c5b9ce886a217b18d6cbff064736f6c63430008070033",
			"opcodes": "PUSH1 0x80 PUSH1 0x40 MSTORE CALLVALUE DUP1 ISZERO PUSH2 0x10 JUMPI PUSH1 0x0 DUP1 REVERT JUMPDEST POP PUSH2 0x22B DUP1 PUSH2 0x20 PUSH1 0x0 CODECOPY PUSH1 0x0 RETURN INVALID PUSH1 0x80 PUSH1 0x40 MSTORE CALLVALUE DUP1 ISZERO PUSH2 0x10 JUMPI PUSH1 0x0 DUP1 REVERT JUMPDEST POP PUSH1 0x4 CALLDATASIZE LT PUSH2 0x2B JUMPI PUSH1 0x0 CALLDATALOAD PUSH1 0xE0 SHR DUP1 PUSH4 0xE24F2344 EQ PUSH2 0x30 JUMPI JUMPDEST PUSH1 0x0 DUP1 REVERT JUMPDEST PUSH2 0x43 PUSH2 0x3E CALLDATASIZE PUSH1 0x4 PUSH2 0xD9 JUMP JUMPDEST PUSH2 0x45 JUMP JUMPDEST STOP JUMPDEST PUSH32 0x79B73EDDF482E71793FFDC0A9626C079CB209A954DA210C8D7797BD856398E45 CALLER DUP7 DUP7 DUP7 DUP7 DUP7 PUSH1 0x40 MLOAD PUSH2 0x7E SWAP7 SWAP6 SWAP5 SWAP4 SWAP3 SWAP2 SWAP1 PUSH2 0x153 JUMP JUMPDEST PUSH1 0x40 MLOAD DUP1 SWAP2 SUB SWAP1 LOG1 POP POP POP POP POP JUMP JUMPDEST PUSH1 0x0 DUP1 DUP4 PUSH1 0x1F DUP5 ADD SLT PUSH2 0x9F JUMPI PUSH1 0x0 DUP1 REVERT JUMPDEST POP DUP2 CALLDATALOAD PUSH8 0xFFFFFFFFFFFFFFFF DUP2 GT ISZERO PUSH2 0xB7 JUMPI PUSH1 0x0 DUP1 REVERT JUMPDEST PUSH1 0x20 DUP4 ADD SWAP2 POP DUP4 PUSH1 0x20 DUP3 PUSH1 0x5 SHL DUP6 ADD ADD GT ISZERO PUSH2 0xD2 JUMPI PUSH1 0x0 DUP1 REVERT JUMPDEST SWAP3 POP SWAP3 SWAP1 POP JUMP JUMPDEST PUSH1 0x0 DUP1 PUSH1 0x0 DUP1 PUSH1 0x0 PUSH1 0x60 DUP7 DUP9 SUB SLT ISZERO PUSH2 0xF1 JUMPI PUSH1 0x0 DUP1 REVERT JUMPDEST DUP6 CALLDATALOAD SWAP5 POP PUSH1 0x20 DUP7 ADD CALLDATALOAD PUSH8 0xFFFFFFFFFFFFFFFF DUP1 DUP3 GT ISZERO PUSH2 0x110 JUMPI PUSH1 0x0 DUP1 REVERT JUMPDEST PUSH2 0x11C DUP10 DUP4 DUP11 ADD PUSH2 0x8D JUMP JUMPDEST SWAP1 SWAP7 POP SWAP5 POP PUSH1 0x40 DUP9 ADD CALLDATALOAD SWAP2 POP DUP1 DUP3 GT ISZERO PUSH2 0x135 JUMPI PUSH1 0x0 DUP1 REVERT JUMPDEST POP PUSH2 0x142 DUP9 DUP3 DUP10 ADD PUSH2 0x8D JUMP JUMPDEST SWAP7 SWAP10 SWAP6 SWAP9 POP SWAP4 SWAP7 POP SWAP3 SWAP5 SWAP4 SWAP3 POP POP POP JUMP JUMPDEST PUSH1 0x1 PUSH1 0x1 PUSH1 0xA0 SHL SUB DUP8 AND DUP2 MSTORE PUSH1 0x20 DUP1 DUP3 ADD DUP8 SWAP1 MSTORE PUSH1 0x80 PUSH1 0x40 DUP4 ADD DUP2 SWAP1 MSTORE DUP3 ADD DUP6 SWAP1 MSTORE PUSH1 0x0 SWAP1 PUSH1 0x1 PUSH1 0x1 PUSH1 0xFB SHL SUB DUP7 GT ISZERO PUSH2 0x18C JUMPI PUSH1 0x0 DUP1 REVERT JUMPDEST DUP6 PUSH1 0x5 SHL DUP1 DUP9 PUSH1 0xA0 DUP7 ADD CALLDATACOPY DUP4 ADD DUP4 DUP2 SUB PUSH1 0xA0 SWAP1 DUP2 ADD PUSH1 0x60 DUP7 ADD MSTORE DUP2 ADD DUP6 SWAP1 MSTORE DUP6 SWAP1 PUSH1 0x0 SWAP1 DUP2 SWAP1 PUSH1 0xC0 ADD JUMPDEST DUP8 DUP4 LT ISZERO PUSH2 0x1E5 JUMPI DUP4 CALLDATALOAD PUSH2 0xFFFF DUP2 AND DUP1 DUP3 EQ PUSH2 0x1D0 JUMPI DUP4 DUP5 REVERT JUMPDEST DUP3 MSTORE POP SWAP3 DUP5 ADD SWAP3 PUSH1 0x1 SWAP3 SWAP1 SWAP3 ADD SWAP2 DUP5 ADD PUSH2 0x1B6 JUMP JUMPDEST SWAP13 SWAP12 POP POP POP POP POP POP POP POP POP POP POP POP JUMP INVALID LOG2 PUSH5 0x6970667358 0x22 SLT KECCAK256 0xD4 NUMBER 0xBD DUP4 CALLDATASIZE TIMESTAMP 0x25 BASEFEE PUSH6 0xB9CEAF9DC976 ORIGIN 0xFB DUP2 PUSH16 0x947C5B9CE886A217B18D6CBFF064736F PUSH13 0x63430008070033000000000000 "
		},
		"gasEstimates": {
			"creation": {
				"codeDepositCost": "111000",
				"executionCost": "159",
				"totalCost": "111159"
			},
			"external": {
				"Interact(uint256,uint256[],uint16[])": "infinite"
			}
		},
		"methodIdentifiers": {
			"Interact(uint256,uint256[],uint16[])": "e24f2344"
		}
	},
	"abi": [
		{
			"anonymous": false,
			"inputs": [
				{
					"indexed": false,
					"internalType": "address",
					"name": "caller",
					"type": "address"
				},
				{
					"indexed": false,
					"internalType": "uint256",
					"name": "artworkId",
					"type": "uint256"
				},
				{
					"indexed": false,
					"internalType": "uint256[]",
					"name": "parameterIds",
					"type": "uint256[]"
				},
				{
					"indexed": false,
					"internalType": "uint16[]",
					"name": "parametervalues",
					"type": "uint16[]"
				}
			],
			"name": "ParameterChanged",
			"type": "event"
		},
		{
			"inputs": [
				{
					"internalType": "uint256",
					"name": "artworkId",
					"type": "uint256"
				},
				{
					"internalType": "uint256[]",
					"name": "parameterIds",
					"type": "uint256[]"
				},
				{
					"internalType": "uint16[]",
					"name": "parameterValues",
					"type": "uint16[]"
				}
			],
			"name": "Interact",
			"outputs": [],
			"stateMutability": "nonpayable",
			"type": "function"
		}
	]
}