{
	"data": {
		"bytecode": {
			"linkReferences": {},
			"object": "608060405234801561001057600080fd5b5061032c806100206000396000f3fe608060405234801561001057600080fd5b506004361061002b5760003560e01c8063712cc04014610030575b600080fd5b61004a600480360381019061004591906100ff565b61004c565b005b7fa56f929342b61350d67151f008d9eaa0d8e8fe6bb21481d9a7797a8291f25e593386868686866040516100859695949392919061020e565b60405180910390a15050505050565b60008083601f8401126100aa576100a96102c6565b5b8235905067ffffffffffffffff8111156100c7576100c66102c1565b5b6020830191508360208202830111156100e3576100e26102cb565b5b9250929050565b6000813590506100f9816102df565b92915050565b60008060008060006060868803121561011b5761011a6102da565b5b6000610129888289016100ea565b955050602086013567ffffffffffffffff81111561014a576101496102d0565b5b61015688828901610094565b9450945050604086013567ffffffffffffffff811115610179576101786102d0565b5b61018588828901610094565b92509250509295509295909350565b61019d81610276565b82525050565b60006101af8385610265565b93507f07ffffffffffffffffffffffffffffffffffffffffffffffffffffffffffffff8311156101e2576101e16102d5565b5b6020830292506101f38385846102b2565b82840190509392505050565b610208816102a8565b82525050565b60006080820190506102236000830189610194565b61023060208301886101ff565b81810360408301526102438186886101a3565b905081810360608301526102588184866101a3565b9050979650505050505050565b600082825260208201905092915050565b600061028182610288565b9050919050565b600073ffffffffffffffffffffffffffffffffffffffff82169050919050565b6000819050919050565b82818337600083830152505050565b600080fd5b600080fd5b600080fd5b600080fd5b600080fd5b600080fd5b6102e8816102a8565b81146102f357600080fd5b5056fea2646970667358221220233f18782e6cf61039b563a96bc2a139264e69876abf4edadc1add001bf2776f64736f6c63430008070033",
			"opcodes": "PUSH1 0x80 PUSH1 0x40 MSTORE CALLVALUE DUP1 ISZERO PUSH2 0x10 JUMPI PUSH1 0x0 DUP1 REVERT JUMPDEST POP PUSH2 0x32C DUP1 PUSH2 0x20 PUSH1 0x0 CODECOPY PUSH1 0x0 RETURN INVALID PUSH1 0x80 PUSH1 0x40 MSTORE CALLVALUE DUP1 ISZERO PUSH2 0x10 JUMPI PUSH1 0x0 DUP1 REVERT JUMPDEST POP PUSH1 0x4 CALLDATASIZE LT PUSH2 0x2B JUMPI PUSH1 0x0 CALLDATALOAD PUSH1 0xE0 SHR DUP1 PUSH4 0x712CC040 EQ PUSH2 0x30 JUMPI JUMPDEST PUSH1 0x0 DUP1 REVERT JUMPDEST PUSH2 0x4A PUSH1 0x4 DUP1 CALLDATASIZE SUB DUP2 ADD SWAP1 PUSH2 0x45 SWAP2 SWAP1 PUSH2 0xFF JUMP JUMPDEST PUSH2 0x4C JUMP JUMPDEST STOP JUMPDEST PUSH32 0xA56F929342B61350D67151F008D9EAA0D8E8FE6BB21481D9A7797A8291F25E59 CALLER DUP7 DUP7 DUP7 DUP7 DUP7 PUSH1 0x40 MLOAD PUSH2 0x85 SWAP7 SWAP6 SWAP5 SWAP4 SWAP3 SWAP2 SWAP1 PUSH2 0x20E JUMP JUMPDEST PUSH1 0x40 MLOAD DUP1 SWAP2 SUB SWAP1 LOG1 POP POP POP POP POP JUMP JUMPDEST PUSH1 0x0 DUP1 DUP4 PUSH1 0x1F DUP5 ADD SLT PUSH2 0xAA JUMPI PUSH2 0xA9 PUSH2 0x2C6 JUMP JUMPDEST JUMPDEST DUP3 CALLDATALOAD SWAP1 POP PUSH8 0xFFFFFFFFFFFFFFFF DUP2 GT ISZERO PUSH2 0xC7 JUMPI PUSH2 0xC6 PUSH2 0x2C1 JUMP JUMPDEST JUMPDEST PUSH1 0x20 DUP4 ADD SWAP2 POP DUP4 PUSH1 0x20 DUP3 MUL DUP4 ADD GT ISZERO PUSH2 0xE3 JUMPI PUSH2 0xE2 PUSH2 0x2CB JUMP JUMPDEST JUMPDEST SWAP3 POP SWAP3 SWAP1 POP JUMP JUMPDEST PUSH1 0x0 DUP2 CALLDATALOAD SWAP1 POP PUSH2 0xF9 DUP2 PUSH2 0x2DF JUMP JUMPDEST SWAP3 SWAP2 POP POP JUMP JUMPDEST PUSH1 0x0 DUP1 PUSH1 0x0 DUP1 PUSH1 0x0 PUSH1 0x60 DUP7 DUP9 SUB SLT ISZERO PUSH2 0x11B JUMPI PUSH2 0x11A PUSH2 0x2DA JUMP JUMPDEST JUMPDEST PUSH1 0x0 PUSH2 0x129 DUP9 DUP3 DUP10 ADD PUSH2 0xEA JUMP JUMPDEST SWAP6 POP POP PUSH1 0x20 DUP7 ADD CALLDATALOAD PUSH8 0xFFFFFFFFFFFFFFFF DUP2 GT ISZERO PUSH2 0x14A JUMPI PUSH2 0x149 PUSH2 0x2D0 JUMP JUMPDEST JUMPDEST PUSH2 0x156 DUP9 DUP3 DUP10 ADD PUSH2 0x94 JUMP JUMPDEST SWAP5 POP SWAP5 POP POP PUSH1 0x40 DUP7 ADD CALLDATALOAD PUSH8 0xFFFFFFFFFFFFFFFF DUP2 GT ISZERO PUSH2 0x179 JUMPI PUSH2 0x178 PUSH2 0x2D0 JUMP JUMPDEST JUMPDEST PUSH2 0x185 DUP9 DUP3 DUP10 ADD PUSH2 0x94 JUMP JUMPDEST SWAP3 POP SWAP3 POP POP SWAP3 SWAP6 POP SWAP3 SWAP6 SWAP1 SWAP4 POP JUMP JUMPDEST PUSH2 0x19D DUP2 PUSH2 0x276 JUMP JUMPDEST DUP3 MSTORE POP POP JUMP JUMPDEST PUSH1 0x0 PUSH2 0x1AF DUP4 DUP6 PUSH2 0x265 JUMP JUMPDEST SWAP4 POP PUSH32 0x7FFFFFFFFFFFFFFFFFFFFFFFFFFFFFFFFFFFFFFFFFFFFFFFFFFFFFFFFFFFFFF DUP4 GT ISZERO PUSH2 0x1E2 JUMPI PUSH2 0x1E1 PUSH2 0x2D5 JUMP JUMPDEST JUMPDEST PUSH1 0x20 DUP4 MUL SWAP3 POP PUSH2 0x1F3 DUP4 DUP6 DUP5 PUSH2 0x2B2 JUMP JUMPDEST DUP3 DUP5 ADD SWAP1 POP SWAP4 SWAP3 POP POP POP JUMP JUMPDEST PUSH2 0x208 DUP2 PUSH2 0x2A8 JUMP JUMPDEST DUP3 MSTORE POP POP JUMP JUMPDEST PUSH1 0x0 PUSH1 0x80 DUP3 ADD SWAP1 POP PUSH2 0x223 PUSH1 0x0 DUP4 ADD DUP10 PUSH2 0x194 JUMP JUMPDEST PUSH2 0x230 PUSH1 0x20 DUP4 ADD DUP9 PUSH2 0x1FF JUMP JUMPDEST DUP2 DUP2 SUB PUSH1 0x40 DUP4 ADD MSTORE PUSH2 0x243 DUP2 DUP7 DUP9 PUSH2 0x1A3 JUMP JUMPDEST SWAP1 POP DUP2 DUP2 SUB PUSH1 0x60 DUP4 ADD MSTORE PUSH2 0x258 DUP2 DUP5 DUP7 PUSH2 0x1A3 JUMP JUMPDEST SWAP1 POP SWAP8 SWAP7 POP POP POP POP POP POP POP JUMP JUMPDEST PUSH1 0x0 DUP3 DUP3 MSTORE PUSH1 0x20 DUP3 ADD SWAP1 POP SWAP3 SWAP2 POP POP JUMP JUMPDEST PUSH1 0x0 PUSH2 0x281 DUP3 PUSH2 0x288 JUMP JUMPDEST SWAP1 POP SWAP2 SWAP1 POP JUMP JUMPDEST PUSH1 0x0 PUSH20 0xFFFFFFFFFFFFFFFFFFFFFFFFFFFFFFFFFFFFFFFF DUP3 AND SWAP1 POP SWAP2 SWAP1 POP JUMP JUMPDEST PUSH1 0x0 DUP2 SWAP1 POP SWAP2 SWAP1 POP JUMP JUMPDEST DUP3 DUP2 DUP4 CALLDATACOPY PUSH1 0x0 DUP4 DUP4 ADD MSTORE POP POP POP JUMP JUMPDEST PUSH1 0x0 DUP1 REVERT JUMPDEST PUSH1 0x0 DUP1 REVERT JUMPDEST PUSH1 0x0 DUP1 REVERT JUMPDEST PUSH1 0x0 DUP1 REVERT JUMPDEST PUSH1 0x0 DUP1 REVERT JUMPDEST PUSH1 0x0 DUP1 REVERT JUMPDEST PUSH2 0x2E8 DUP2 PUSH2 0x2A8 JUMP JUMPDEST DUP2 EQ PUSH2 0x2F3 JUMPI PUSH1 0x0 DUP1 REVERT JUMPDEST POP JUMP INVALID LOG2 PUSH5 0x6970667358 0x22 SLT KECCAK256 0x23 EXTCODEHASH XOR PUSH25 0x2E6CF61039B563A96BC2A139264E69876ABF4EDADC1ADD001B CALLCODE PUSH24 0x6F64736F6C63430008070033000000000000000000000000 "
		},
		"gasEstimates": {
			"creation": {
				"codeDepositCost": "162400",
				"executionCost": "208",
				"totalCost": "162608"
			},
			"external": {
				"Interact(uint256,uint256[],uint256[])": "infinite"
			}
		},
		"methodIdentifiers": {
			"Interact(uint256,uint256[],uint256[])": "712cc040"
		}
	},
	"abi": [
		{
			"anonymous": false,
			"inputs": [
				{
					"indexed": false,
					"internalType": "address",
					"name": "caller",
					"type": "address"
				},
				{
					"indexed": false,
					"internalType": "uint256",
					"name": "artworkId",
					"type": "uint256"
				},
				{
					"indexed": false,
					"internalType": "uint256[]",
					"name": "parameterIds",
					"type": "uint256[]"
				},
				{
					"indexed": false,
					"internalType": "uint256[]",
					"name": "parametervalues",
					"type": "uint256[]"
				}
			],
			"name": "ParameterChanged",
			"type": "event"
		},
		{
			"inputs": [
				{
					"internalType": "uint256",
					"name": "artworkId",
					"type": "uint256"
				},
				{
					"internalType": "uint256[]",
					"name": "parameterIds",
					"type": "uint256[]"
				},
				{
					"internalType": "uint256[]",
					"name": "parameterValues",
					"type": "uint256[]"
				}
			],
			"name": "Interact",
			"outputs": [],
			"stateMutability": "nonpayable",
			"type": "function"
		}
	]
}